{
    "contractName": "Bank",
    "abi": [
        {
            "inputs": [
                {
                    "internalType": "address payable",
                    "name": "_contractOwner",
                    "type": "address"
                }
            ],
            "stateMutability": "nonpayable",
            "type": "constructor"
        },
        {
            "anonymous": false,
            "inputs": [
                {
                    "components": [
                        {
                            "internalType": "address payable",
                            "name": "owner",
                            "type": "address"
                        },
                        {
                            "internalType": "string",
                            "name": "accountName",
                            "type": "string"
                        },
                        {
                            "internalType": "string",
                            "name": "description",
                            "type": "string"
                        },
                        {
                            "internalType": "uint256",
                            "name": "amount",
                            "type": "uint256"
                        },
                        {
                            "internalType": "uint256",
                            "name": "lockTime",
                            "type": "uint256"
                        },
                        {
                            "internalType": "uint256",
                            "name": "accountId",
                            "type": "uint256"
                        }
                    ],
                    "indexed": false,
                    "internalType": "struct Bank.Account",
                    "name": "account",
                    "type": "tuple"
                }
            ],
            "name": "locked",
            "type": "event"
        },
        {
            "anonymous": false,
            "inputs": [
                {
                    "indexed": false,
                    "internalType": "uint256",
                    "name": "amount",
                    "type": "uint256"
                },
                {
                    "indexed": false,
                    "internalType": "uint256",
                    "name": "time",
                    "type": "uint256"
                },
                {
                    "indexed": false,
                    "internalType": "address",
                    "name": "owner",
                    "type": "address"
                },
                {
                    "indexed": false,
                    "internalType": "string",
                    "name": "accountName",
                    "type": "string"
                }
            ],
            "name": "newDeposit",
            "type": "event"
        },
        {
            "anonymous": false,
            "inputs": [
                {
                    "indexed": false,
                    "internalType": "uint256",
                    "name": "amount",
                    "type": "uint256"
                },
                {
                    "indexed": false,
                    "internalType": "uint256",
                    "name": "newBalance",
                    "type": "uint256"
                },
                {
                    "indexed": false,
                    "internalType": "address",
                    "name": "owner",
                    "type": "address"
                },
                {
                    "indexed": false,
                    "internalType": "string",
                    "name": "accoutName",
                    "type": "string"
                }
            ],
            "name": "newWithdraw",
            "type": "event"
        },
        {
            "inputs": [
                {
                    "internalType": "uint256",
                    "name": "",
                    "type": "uint256"
                }
            ],
            "name": "accounts",
            "outputs": [
                {
                    "internalType": "address payable",
                    "name": "owner",
                    "type": "address"
                },
                {
                    "internalType": "string",
                    "name": "accountName",
                    "type": "string"
                },
                {
                    "internalType": "string",
                    "name": "description",
                    "type": "string"
                },
                {
                    "internalType": "uint256",
                    "name": "amount",
                    "type": "uint256"
                },
                {
                    "internalType": "uint256",
                    "name": "lockTime",
                    "type": "uint256"
                },
                {
                    "internalType": "uint256",
                    "name": "accountId",
                    "type": "uint256"
                }
            ],
            "stateMutability": "view",
            "type": "function"
        },
        {
            "inputs": [],
            "name": "commisson",
            "outputs": [
                {
                    "internalType": "uint256",
                    "name": "",
                    "type": "uint256"
                }
            ],
            "stateMutability": "view",
            "type": "function"
        },
        {
            "inputs": [],
            "name": "contractOwner",
            "outputs": [
                {
                    "internalType": "address payable",
                    "name": "",
                    "type": "address"
                }
            ],
            "stateMutability": "view",
            "type": "function"
        },
        {
            "inputs": [
                {
                    "internalType": "string",
                    "name": "_accountName",
                    "type": "string"
                },
                {
                    "internalType": "string",
                    "name": "_accountDescription",
                    "type": "string"
                },
                {
                    "internalType": "uint256",
                    "name": "_accountId",
                    "type": "uint256"
                }
            ],
            "name": "createAccount",
            "outputs": [
                {
                    "internalType": "bool",
                    "name": "",
                    "type": "bool"
                }
            ],
            "stateMutability": "nonpayable",
            "type": "function"
        },
        {
            "inputs": [
                {
                    "internalType": "uint256",
                    "name": "_accountId",
                    "type": "uint256"
                }
            ],
            "name": "deleteAccount",
            "outputs": [
                {
                    "internalType": "bool",
                    "name": "",
                    "type": "bool"
                }
            ],
            "stateMutability": "nonpayable",
            "type": "function"
        },
        {
            "inputs": [
                {
                    "internalType": "uint256",
                    "name": "_accountId",
                    "type": "uint256"
                }
            ],
            "name": "deposit",
            "outputs": [],
            "stateMutability": "payable",
            "type": "function"
        },
        {
            "inputs": [
                {
                    "internalType": "uint256",
                    "name": "_accountId",
                    "type": "uint256"
                }
            ],
            "name": "getAccount",
            "outputs": [
                {
                    "components": [
                        {
                            "internalType": "address payable",
                            "name": "owner",
                            "type": "address"
                        },
                        {
                            "internalType": "string",
                            "name": "accountName",
                            "type": "string"
                        },
                        {
                            "internalType": "string",
                            "name": "description",
                            "type": "string"
                        },
                        {
                            "internalType": "uint256",
                            "name": "amount",
                            "type": "uint256"
                        },
                        {
                            "internalType": "uint256",
                            "name": "lockTime",
                            "type": "uint256"
                        },
                        {
                            "internalType": "uint256",
                            "name": "accountId",
                            "type": "uint256"
                        }
                    ],
                    "internalType": "struct Bank.Account",
                    "name": "_account",
                    "type": "tuple"
                }
            ],
            "stateMutability": "view",
            "type": "function"
        },
        {
            "inputs": [],
            "name": "getBankBalance",
            "outputs": [
                {
                    "internalType": "uint256",
                    "name": "",
                    "type": "uint256"
                }
            ],
            "stateMutability": "view",
            "type": "function"
        },
        {
            "inputs": [],
            "name": "getContractOwner",
            "outputs": [
                {
                    "internalType": "address",
                    "name": "",
                    "type": "address"
                }
            ],
            "stateMutability": "view",
            "type": "function"
        },
        {
            "inputs": [
                {
                    "internalType": "uint256",
                    "name": "_accountId",
                    "type": "uint256"
                },
                {
                    "internalType": "uint256",
                    "name": "_timestamp",
                    "type": "uint256"
                }
            ],
            "name": "lockAccount",
            "outputs": [],
            "stateMutability": "nonpayable",
            "type": "function"
        },
        {
            "inputs": [],
            "name": "totalAccount",
            "outputs": [
                {
                    "internalType": "uint256",
                    "name": "",
                    "type": "uint256"
                }
            ],
            "stateMutability": "view",
            "type": "function"
        },
        {
            "inputs": [
                {
                    "internalType": "uint256",
                    "name": "newCommission",
                    "type": "uint256"
                }
            ],
            "name": "updateCommission",
            "outputs": [],
            "stateMutability": "nonpayable",
            "type": "function"
        },
        {
            "inputs": [
                {
                    "internalType": "uint256",
                    "name": "_accountId",
                    "type": "uint256"
                },
                {
                    "internalType": "uint256",
                    "name": "_amount",
                    "type": "uint256"
                }
            ],
            "name": "withdraw",
            "outputs": [],
            "stateMutability": "payable",
            "type": "function"
        }
    ],
    "bytecode": "60806040526000600255600060035534801561001a57600080fd5b5060405161128e38038061128e83398101604081905261003991610063565b6001600081905580546001600160a01b0319166001600160a01b0392909216919091179055610093565b60006020828403121561007557600080fd5b81516001600160a01b038116811461008c57600080fd5b9392505050565b6111ec806100a26000396000f3fe6080604052600436106100c25760003560e01c8063b6b55f251161007f578063d9f529b311610059578063d9f529b3146101fc578063ec4659eb1461021c578063f2a40db81461023c578063ffdc61f71461026e57600080fd5b8063b6b55f251461019c578063ce606ee0146101af578063ce88b145146101cf57600080fd5b80632fb1271d146100c7578063355e0f68146100fc578063441a3e7014610120578063442890d5146101355780637b83b50b146101675780639d55fba71461017c575b600080fd5b3480156100d357600080fd5b506100e76100e2366004610c48565b610284565b60405190151581526020015b60405180910390f35b34801561010857600080fd5b5061011260035481565b6040519081526020016100f3565b61013361012e366004610c61565b61033b565b005b34801561014157600080fd5b506001546001600160a01b03165b6040516001600160a01b0390911681526020016100f3565b34801561017357600080fd5b5061011261053d565b34801561018857600080fd5b50610133610197366004610c48565b61055c565b6101336101aa366004610c48565b610578565b3480156101bb57600080fd5b5060015461014f906001600160a01b031681565b3480156101db57600080fd5b506101ef6101ea366004610c48565b6105f0565b6040516100f39190610cc9565b34801561020857600080fd5b506100e7610217366004610de2565b6107a7565b34801561022857600080fd5b50610133610237366004610c61565b610869565b34801561024857600080fd5b5061025c610257366004610c48565b610916565b6040516100f396959493929190610e4f565b34801561027a57600080fd5b5061011260025481565b60008181526004602052604081205482906001600160a01b031633146102a957600080fd5b60008381526004602052604090206003810154156102cb576000925050610335565b600084815260046020526040812080546001600160a01b0319168155906102f56001830182610bf2565b610303600283016000610bf2565b50600060038201819055600482018190556005909101819055600280549161032a83610eba565b919050555060019250505b50919050565b60008281526004602052604090205482906001600160a01b0316331461036057600080fd5b6000838152600460205260409020600381015483106103c65760405162461bcd60e51b815260206004820152601860248201527f446f6e2774206861766520656e6f7567687420666f756e64000000000000000060448201526064015b60405180910390fd5b6103cf84610a65565b61042d5760405162461bcd60e51b815260206004820152602960248201527f43616e206e6f742077697468647261772c206163636f756e74206973207374696044820152681b1b081b1bd8dad95960ba1b60648201526084016103bd565b600060646003548561043f9190610ed1565b6104499190610eee565b905060006104578286610f10565b83546040519192506001600160a01b03169082156108fc029083906000818181858888f19350505050158015610491573d6000803e3d6000fd5b506001546040516001600160a01b039091169083156108fc029084906000818181858888f193505050501580156104cc573d6000803e3d6000fd5b5060008184600301546104df9190610f10565b6003850181905584546040519192507fdfa93119bdd359cb95bc8b9483c2c907b863846ea58e316b61cf31e400cc5b6d9161052c91899185916001600160a01b03169060018a0190610fd4565b60405180910390a150505050505050565b6001546000906001600160a01b0316331461055757600080fd5b504790565b6001546001600160a01b0316331461057357600080fd5b600355565b60008181526004602052604081206003810154339234929161059b90849061100b565b6003830181905560048301546040519192507f96c8b703c35438a4e29defc0cc9af6dda00df6248760bbdc6b7893417987e083916105e191869188906001880190610fd4565b60405180910390a15050505050565b6106326040518060c0016040528060006001600160a01b0316815260200160608152602001606081526020016000815260200160008152602001600081525090565b600082815260046020908152604091829020825160c0810190935280546001600160a01b03168352600181018054919284019161066e90610f23565b80601f016020809104026020016040519081016040528092919081815260200182805461069a90610f23565b80156106e75780601f106106bc576101008083540402835291602001916106e7565b820191906000526020600020905b8154815290600101906020018083116106ca57829003601f168201915b5050505050815260200160028201805461070090610f23565b80601f016020809104026020016040519081016040528092919081815260200182805461072c90610f23565b80156107795780601f1061074e57610100808354040283529160200191610779565b820191906000526020600020905b81548152906001019060200180831161075c57829003601f168201915b5050505050815260200160038201548152602001600482015481526020016005820154815250509050919050565b6040805160c08101825233815260208082018681528284018690526000606084018190526080840181905260a084018690528581526004909252928120825181546001600160a01b0319166001600160a01b0390911617815592519092906001820190610814908261106d565b5060408201516002820190610829908261106d565b50606082015160038201556080820151600482015560a0909101516005909101556002805490600061085a8361112d565b90915550600195945050505050565b8042106108c25760405162461bcd60e51b815260206004820152602160248201527f6c6f636b2074696d652073686f756c6420626520696e207468652066757475726044820152606560f81b60648201526084016103bd565b60008281526004602081905260409182902090810183905590517fb315db05e4379eee48ad60affc97870fe7c23920dbeaa6b0e7efc80675f4c3d090610909908390611146565b60405180910390a1505050565b600460205260009081526040902080546001820180546001600160a01b03909216929161094290610f23565b80601f016020809104026020016040519081016040528092919081815260200182805461096e90610f23565b80156109bb5780601f10610990576101008083540402835291602001916109bb565b820191906000526020600020905b81548152906001019060200180831161099e57829003601f168201915b5050505050908060020180546109d090610f23565b80601f01602080910402602001604051908101604052809291908181526020018280546109fc90610f23565b8015610a495780601f10610a1e57610100808354040283529160200191610a49565b820191906000526020600020905b815481529060010190602001808311610a2c57829003601f168201915b5050505050908060030154908060040154908060050154905086565b6000818152600460209081526040808320815160c0810190925280546001600160a01b03168252600181018054859484019190610aa190610f23565b80601f0160208091040260200160405190810160405280929190818152602001828054610acd90610f23565b8015610b1a5780601f10610aef57610100808354040283529160200191610b1a565b820191906000526020600020905b815481529060010190602001808311610afd57829003601f168201915b50505050508152602001600282018054610b3390610f23565b80601f0160208091040260200160405190810160405280929190818152602001828054610b5f90610f23565b8015610bac5780601f10610b8157610100808354040283529160200191610bac565b820191906000526020600020905b815481529060010190602001808311610b8f57829003601f168201915b505050505081526020016003820154815260200160048201548152602001600582015481525050905080608001514210610be95750600192915050565b50600092915050565b508054610bfe90610f23565b6000825580601f10610c0e575050565b601f016020900490600052602060002090810190610c2c9190610c2f565b50565b5b80821115610c445760008155600101610c30565b5090565b600060208284031215610c5a57600080fd5b5035919050565b60008060408385031215610c7457600080fd5b50508035926020909101359150565b6000815180845260005b81811015610ca957602081850181015186830182015201610c8d565b506000602082860101526020601f19601f83011685010191505092915050565b602080825282516001600160a01b03168282015282015160c06040830152600090610cf760e0840182610c83565b90506040840151601f19848303016060850152610d148282610c83565b91505060608401516080840152608084015160a084015260a084015160c08401528091505092915050565b634e487b7160e01b600052604160045260246000fd5b600082601f830112610d6657600080fd5b813567ffffffffffffffff80821115610d8157610d81610d3f565b604051601f8301601f19908116603f01168101908282118183101715610da957610da9610d3f565b81604052838152866020858801011115610dc257600080fd5b836020870160208301376000602085830101528094505050505092915050565b600080600060608486031215610df757600080fd5b833567ffffffffffffffff80821115610e0f57600080fd5b610e1b87838801610d55565b94506020860135915080821115610e3157600080fd5b50610e3e86828701610d55565b925050604084013590509250925092565b6001600160a01b038716815260c060208201819052600090610e7390830188610c83565b8281036040840152610e858188610c83565b60608401969096525050608081019290925260a0909101529392505050565b634e487b7160e01b600052601160045260246000fd5b600081610ec957610ec9610ea4565b506000190190565b8082028115828204841417610ee857610ee8610ea4565b92915050565b600082610f0b57634e487b7160e01b600052601260045260246000fd5b500490565b81810381811115610ee857610ee8610ea4565b600181811c90821680610f3757607f821691505b60208210810361033557634e487b7160e01b600052602260045260246000fd5b60008154610f6481610f23565b808552602060018381168015610f815760018114610f9b57610fc9565b60ff1985168884015283151560051b880183019550610fc9565b866000528260002060005b85811015610fc15781548a8201860152908301908401610fa6565b890184019650505b505050505092915050565b84815283602082015260018060a01b03831660408201526080606082015260006110016080830184610f57565b9695505050505050565b80820180821115610ee857610ee8610ea4565b601f82111561106857600081815260208120601f850160051c810160208610156110455750805b601f850160051c820191505b8181101561106457828155600101611051565b5050505b505050565b815167ffffffffffffffff81111561108757611087610d3f565b61109b816110958454610f23565b8461101e565b602080601f8311600181146110d057600084156110b85750858301515b600019600386901b1c1916600185901b178555611064565b600085815260208120601f198616915b828110156110ff578886015182559484019460019091019084016110e0565b508582101561111d5787850151600019600388901b60f8161c191681555b5050505050600190811b01905550565b60006001820161113f5761113f610ea4565b5060010190565b602080825282546001600160a01b03169082015260c06040820152600061117360e0830160018501610f57565b828103601f1901606084015261118c8160028601610f57565b905060038401546080840152600484015460a0840152600584015460c0840152809150509291505056fea2646970667358221220f8c34fa004aa8d794443e51f501137d81238541eae9d0133b2df054bd82be6d364736f6c63430008130033",
    "sourcePath": "/home/z001/Projects/Personal/celo-crypto-bank/contracts/Bank.sol",
    "compiler": {
        "name": "solc",
        "version": "0.8.19+commit.7dd6d404"
    },
    "functionHashes": {
        "accounts(uint256)": "f2a40db8",
        "commisson()": "355e0f68",
        "contractOwner()": "ce606ee0",
        "createAccount(string,string,uint256)": "d9f529b3",
        "deleteAccount(uint256)": "2fb1271d",
        "deposit(uint256)": "b6b55f25",
        "getAccount(uint256)": "ce88b145",
        "getBankBalance()": "7b83b50b",
        "getContractOwner()": "442890d5",
        "lockAccount(uint256,uint256)": "ec4659eb",
        "totalAccount()": "ffdc61f7",
        "updateCommission(uint256)": "9d55fba7",
        "withdraw(uint256,uint256)": "441a3e70"
    },
    "gasEstimates": {
        "creation": {
            "codeDepositCost": "917600",
            "executionCost": "infinite",
            "totalCost": "infinite"
        },
        "external": {
            "accounts(uint256)": "infinite",
            "commisson()": "2318",
            "contractOwner()": "2382",
            "createAccount(string,string,uint256)": "infinite",
            "deleteAccount(uint256)": "infinite",
            "deposit(uint256)": "infinite",
            "getAccount(uint256)": "infinite",
            "getBankBalance()": "2446",
            "getContractOwner()": "2387",
            "lockAccount(uint256,uint256)": "infinite",
            "totalAccount()": "2383",
            "updateCommission(uint256)": "24575",
            "withdraw(uint256,uint256)": "infinite"
        },
        "internal": {
            "lockTimeExpired(uint256)": "infinite"
        }
    }
}